{
  "_format": "hh-sol-artifact-1",
  "contractName": "UserRequestToCompany",
  "sourceName": "contracts/AccuworkUserRequest.sol",
  "abi": [
    {
      "inputs": [],
      "stateMutability": "nonpayable",
      "type": "constructor"
    },
    {
      "anonymous": false,
      "inputs": [
        {
          "indexed": true,
          "internalType": "address",
          "name": "accuworkCompanyWallet",
          "type": "address"
        },
        {
          "indexed": true,
          "internalType": "address",
          "name": "companyWallet",
          "type": "address"
        },
        {
          "indexed": false,
          "internalType": "uint256",
          "name": "accuworkEthReceiveAmount",
          "type": "uint256"
        },
        {
          "indexed": false,
          "internalType": "uint256",
          "name": "companyEthReceiveAmount",
          "type": "uint256"
        }
      ],
      "name": "PaymentSplit",
      "type": "event"
    },
    {
      "anonymous": false,
      "inputs": [
        {
          "indexed": true,
          "internalType": "address",
          "name": "userWalletAddress",
          "type": "address"
        },
        {
          "indexed": true,
          "internalType": "address",
          "name": "companyWalletAddress",
          "type": "address"
        },
        {
          "components": [
            {
              "internalType": "string",
              "name": "employeeName",
              "type": "string"
            },
            {
              "internalType": "string",
              "name": "companyName",
              "type": "string"
            },
            {
              "internalType": "string",
              "name": "position",
              "type": "string"
            },
            {
              "internalType": "string",
              "name": "location",
              "type": "string"
            },
            {
              "internalType": "uint256",
              "name": "startDate",
              "type": "uint256"
            },
            {
              "internalType": "uint256",
              "name": "endDate",
              "type": "uint256"
            }
          ],
          "indexed": false,
          "internalType": "struct UserRequestToCompany.WorkExperience",
          "name": "workExperience",
          "type": "tuple"
        }
      ],
      "name": "WorkHistoryVerified",
      "type": "event"
    },
    {
      "inputs": [],
      "name": "accuworkCompanyWalletAddress",
      "outputs": [
        {
          "internalType": "address",
          "name": "",
          "type": "address"
        }
      ],
      "stateMutability": "view",
      "type": "function"
    },
    {
      "inputs": [],
      "name": "companyWalletAddress",
      "outputs": [
        {
          "internalType": "address",
          "name": "",
          "type": "address"
        }
      ],
      "stateMutability": "view",
      "type": "function"
    },
    {
      "inputs": [],
      "name": "payForVerification",
      "outputs": [],
      "stateMutability": "payable",
      "type": "function"
    },
    {
      "inputs": [
        {
          "internalType": "address",
          "name": "",
          "type": "address"
        },
        {
          "internalType": "address",
          "name": "",
          "type": "address"
        }
      ],
      "name": "workHistory",
      "outputs": [
        {
          "internalType": "string",
          "name": "employeeName",
          "type": "string"
        },
        {
          "internalType": "string",
          "name": "companyName",
          "type": "string"
        },
        {
          "internalType": "string",
          "name": "position",
          "type": "string"
        },
        {
          "internalType": "string",
          "name": "location",
          "type": "string"
        },
        {
          "internalType": "uint256",
          "name": "startDate",
          "type": "uint256"
        },
        {
          "internalType": "uint256",
          "name": "endDate",
          "type": "uint256"
        }
      ],
      "stateMutability": "view",
      "type": "function"
    }
  ],
  "bytecode": "0x608060405234801561001057600080fd5b50336000806101000a81548173ffffffffffffffffffffffffffffffffffffffff021916908373ffffffffffffffffffffffffffffffffffffffff1602179055506109eb806100606000396000f3fe60806040526004361061003f5760003560e01c8063074e8940146100445780632fd563ea1461006f578063363953a41461007957806351858ca4146100a4575b600080fd5b34801561005057600080fd5b506100596100e6565b6040516100669190610740565b60405180910390f35b61007761010c565b005b34801561008557600080fd5b5061008e61038b565b60405161009b9190610740565b60405180910390f35b3480156100b057600080fd5b506100cb60048036038101906100c6919061062d565b6103af565b6040516100dd9695949392919061075b565b60405180910390f35b600160009054906101000a900473ffffffffffffffffffffffffffffffffffffffff1681565b60008054906101000a900473ffffffffffffffffffffffffffffffffffffffff1673ffffffffffffffffffffffffffffffffffffffff163373ffffffffffffffffffffffffffffffffffffffff161461019a576040517f08c379a0000000000000000000000000000000000000000000000000000000008152600401610191906107f8565b60405180910390fd5b660f46d3c488c000803410156101e5576040517f08c379a00000000000000000000000000000000000000000000000000000000081526004016101dc906107d8565b60405180910390fd5b600034905060006002826101f9919061085d565b9050600060028361020a919061085d565b905060008054906101000a900473ffffffffffffffffffffffffffffffffffffffff1673ffffffffffffffffffffffffffffffffffffffff166108fc849081150290604051600060405180830381858888f19350505050158015610272573d6000803e3d6000fd5b50600160009054906101000a900473ffffffffffffffffffffffffffffffffffffffff1673ffffffffffffffffffffffffffffffffffffffff166108fc849081150290604051600060405180830381858888f193505050501580156102db573d6000803e3d6000fd5b50600160009054906101000a900473ffffffffffffffffffffffffffffffffffffffff1673ffffffffffffffffffffffffffffffffffffffff1660008054906101000a900473ffffffffffffffffffffffffffffffffffffffff1673ffffffffffffffffffffffffffffffffffffffff167f3be6f1b9eb36e4ee3f8c55c2efa5ea2905609fdc0ef7823fda96f0e4f6b4f257848460405161037d929190610818565b60405180910390a350505050565b60008054906101000a900473ffffffffffffffffffffffffffffffffffffffff1681565b6002602052816000526040600020602052806000526040600020600091509150508060000180546103df906108fd565b80601f016020809104026020016040519081016040528092919081815260200182805461040b906108fd565b80156104585780601f1061042d57610100808354040283529160200191610458565b820191906000526020600020905b81548152906001019060200180831161043b57829003601f168201915b50505050509080600101805461046d906108fd565b80601f0160208091040260200160405190810160405280929190818152602001828054610499906108fd565b80156104e65780601f106104bb576101008083540402835291602001916104e6565b820191906000526020600020905b8154815290600101906020018083116104c957829003601f168201915b5050505050908060020180546104fb906108fd565b80601f0160208091040260200160405190810160405280929190818152602001828054610527906108fd565b80156105745780601f1061054957610100808354040283529160200191610574565b820191906000526020600020905b81548152906001019060200180831161055757829003601f168201915b505050505090806003018054610589906108fd565b80601f01602080910402602001604051908101604052809291908181526020018280546105b5906108fd565b80156106025780601f106105d757610100808354040283529160200191610602565b820191906000526020600020905b8154815290600101906020018083116105e557829003601f168201915b5050505050908060040154908060050154905086565b6000813590506106278161099e565b92915050565b6000806040838503121561064057600080fd5b600061064e85828601610618565b925050602061065f85828601610618565b9150509250929050565b6106728161088e565b82525050565b600061068382610841565b61068d818561084c565b935061069d8185602086016108ca565b6106a68161098d565b840191505092915050565b60006106be60128361084c565b91507f496e73756666696369656e742066756e647300000000000000000000000000006000830152602082019050919050565b60006106fe600e8361084c565b91507f4e6f7420617574686f72697a65640000000000000000000000000000000000006000830152602082019050919050565b61073a816108c0565b82525050565b60006020820190506107556000830184610669565b92915050565b600060c08201905081810360008301526107758189610678565b905081810360208301526107898188610678565b9050818103604083015261079d8187610678565b905081810360608301526107b18186610678565b90506107c06080830185610731565b6107cd60a0830184610731565b979650505050505050565b600060208201905081810360008301526107f1816106b1565b9050919050565b60006020820190508181036000830152610811816106f1565b9050919050565b600060408201905061082d6000830185610731565b61083a6020830184610731565b9392505050565b600081519050919050565b600082825260208201905092915050565b6000610868826108c0565b9150610873836108c0565b9250826108835761088261092f565b5b828204905092915050565b6000610899826108a0565b9050919050565b600073ffffffffffffffffffffffffffffffffffffffff82169050919050565b6000819050919050565b60005b838110156108e85780820151818401526020810190506108cd565b838111156108f7576000848401525b50505050565b6000600282049050600182168061091557607f821691505b602082108114156109295761092861095e565b5b50919050565b7f4e487b7100000000000000000000000000000000000000000000000000000000600052601260045260246000fd5b7f4e487b7100000000000000000000000000000000000000000000000000000000600052602260045260246000fd5b6000601f19601f8301169050919050565b6109a78161088e565b81146109b257600080fd5b5056fea264697066735822122046f5e0b5e7080bd027c0758053f61f0fede9c3086be767a1ae744d3b4e70d19c64736f6c63430008000033",
  "linkReferences": {},
  "deployedLinkReferences": {}
}