{
  "_format": "hh-sol-artifact-1",
  "contractName": "UserRequestToCompany",
  "sourceName": "contracts/AccuworkUserRequest.sol",
  "abi": [
    {
      "inputs": [],
      "stateMutability": "nonpayable",
      "type": "constructor"
    },
    {
      "inputs": [],
      "name": "accuworkCompanyWalletAddress",
      "outputs": [
        {
          "internalType": "address",
          "name": "",
          "type": "address"
        }
      ],
      "stateMutability": "view",
      "type": "function"
    },
    {
      "inputs": [
        {
          "internalType": "string",
          "name": "employeeName",
          "type": "string"
        },
        {
          "internalType": "string",
          "name": "companyName",
          "type": "string"
        },
        {
          "internalType": "string",
          "name": "position",
          "type": "string"
        },
        {
          "internalType": "string",
          "name": "location",
          "type": "string"
        },
        {
          "internalType": "uint256",
          "name": "startDate",
          "type": "uint256"
        },
        {
          "internalType": "uint256",
          "name": "endDate",
          "type": "uint256"
        }
      ],
      "name": "addWorkExperienceAndVerifyAndPay",
      "outputs": [
        {
          "internalType": "bool",
          "name": "",
          "type": "bool"
        }
      ],
      "stateMutability": "payable",
      "type": "function"
    },
    {
      "inputs": [],
      "name": "userWalletAddress",
      "outputs": [
        {
          "internalType": "address",
          "name": "",
          "type": "address"
        }
      ],
      "stateMutability": "view",
      "type": "function"
    },
    {
      "inputs": [
        {
          "internalType": "address",
          "name": "",
          "type": "address"
        }
      ],
      "name": "workExperience",
      "outputs": [
        {
          "internalType": "string",
          "name": "employeeName",
          "type": "string"
        },
        {
          "internalType": "string",
          "name": "companyName",
          "type": "string"
        },
        {
          "internalType": "string",
          "name": "position",
          "type": "string"
        },
        {
          "internalType": "string",
          "name": "location",
          "type": "string"
        },
        {
          "internalType": "uint256",
          "name": "startDate",
          "type": "uint256"
        },
        {
          "internalType": "uint256",
          "name": "endDate",
          "type": "uint256"
        }
      ],
      "stateMutability": "view",
      "type": "function"
    }
  ],
  "bytecode": "0x608060405234801561001057600080fd5b50336000806101000a81548173ffffffffffffffffffffffffffffffffffffffff021916908373ffffffffffffffffffffffffffffffffffffffff160217905550610da3806100606000396000f3fe60806040526004361061003f5760003560e01c8063363953a4146100445780633ef860d41461006f578063ac559fe11461009f578063f8e0b556146100e1575b600080fd5b34801561005057600080fd5b5061005961010c565b6040516100669190610ab9565b60405180910390f35b610089600480360381019061008491906108e2565b610130565b6040516100969190610ad4565b60405180910390f35b3480156100ab57600080fd5b506100c660048036038101906100c191906108b9565b610364565b6040516100d896959493929190610aef565b60405180910390f35b3480156100ed57600080fd5b506100f66105c0565b6040516101039190610ab9565b60405180910390f35b60008054906101000a900473ffffffffffffffffffffffffffffffffffffffff1681565b60008060009054906101000a900473ffffffffffffffffffffffffffffffffffffffff1673ffffffffffffffffffffffffffffffffffffffff163373ffffffffffffffffffffffffffffffffffffffff16146101c1576040517f08c379a00000000000000000000000000000000000000000000000000000000081526004016101b890610b6c565b60405180910390fd5b600034905065b5e620f480008110156101de57600091505061035a565b600081905060008054906101000a900473ffffffffffffffffffffffffffffffffffffffff1673ffffffffffffffffffffffffffffffffffffffff166108fc829081150290604051600060405180830381858888f19350505050158015610249573d6000803e3d6000fd5b506040518060c001604052808a815260200189815260200188815260200187815260200186815260200185815250600260003373ffffffffffffffffffffffffffffffffffffffff1673ffffffffffffffffffffffffffffffffffffffff16815260200190815260200160002060008201518160000190805190602001906102d2929190610784565b5060208201518160010190805190602001906102ef929190610784565b50604082015181600201908051906020019061030c929190610784565b506060820151816003019080519060200190610329929190610784565b506080820151816004015560a0820151816005015590505060006103518a8a8a8a8a8a6105e6565b90508093505050505b9695505050505050565b600260205280600052604060002060009150905080600001805461038790610c9e565b80601f01602080910402602001604051908101604052809291908181526020018280546103b390610c9e565b80156104005780601f106103d557610100808354040283529160200191610400565b820191906000526020600020905b8154815290600101906020018083116103e357829003601f168201915b50505050509080600101805461041590610c9e565b80601f016020809104026020016040519081016040528092919081815260200182805461044190610c9e565b801561048e5780601f106104635761010080835404028352916020019161048e565b820191906000526020600020905b81548152906001019060200180831161047157829003601f168201915b5050505050908060020180546104a390610c9e565b80601f01602080910402602001604051908101604052809291908181526020018280546104cf90610c9e565b801561051c5780601f106104f15761010080835404028352916020019161051c565b820191906000526020600020905b8154815290600101906020018083116104ff57829003601f168201915b50505050509080600301805461053190610c9e565b80601f016020809104026020016040519081016040528092919081815260200182805461055d90610c9e565b80156105aa5780601f1061057f576101008083540402835291602001916105aa565b820191906000526020600020905b81548152906001019060200180831161058d57829003601f168201915b5050505050908060040154908060050154905086565b600160009054906101000a900473ffffffffffffffffffffffffffffffffffffffff1681565b600080610628886040518060400160405280600881526020017f4a6f686e20446f6500000000000000000000000000000000000000000000000081525061072b565b801561066f575061066e876040518060400160405280600681526020017f476f6f676c65000000000000000000000000000000000000000000000000000081525061072b565b5b80156106b657506106b5866040518060400160405280601481526020017f46756c6c20537461636b20446576656c6f70657200000000000000000000000081525061072b565b5b80156106fd57506106fc856040518060400160405280600781526020017f546f726f6e746f0000000000000000000000000000000000000000000000000081525061072b565b5b801561070c575063075bcd1584145b801561071b5750633ade68b183145b9050809150509695505050505050565b60008160405160200161073e9190610aa2565b60405160208183030381529060405280519060200120836040516020016107659190610aa2565b6040516020818303038152906040528051906020012014905092915050565b82805461079090610c9e565b90600052602060002090601f0160209004810192826107b257600085556107f9565b82601f106107cb57805160ff19168380011785556107f9565b828001600101855582156107f9579182015b828111156107f85782518255916020019190600101906107dd565b5b509050610806919061080a565b5090565b5b8082111561082357600081600090555060010161080b565b5090565b600061083a61083584610bbd565b610b8c565b90508281526020810184848401111561085257600080fd5b61085d848285610c5c565b509392505050565b60008135905061087481610d3f565b92915050565b600082601f83011261088b57600080fd5b813561089b848260208601610827565b91505092915050565b6000813590506108b381610d56565b92915050565b6000602082840312156108cb57600080fd5b60006108d984828501610865565b91505092915050565b60008060008060008060c087890312156108fb57600080fd5b600087013567ffffffffffffffff81111561091557600080fd5b61092189828a0161087a565b965050602087013567ffffffffffffffff81111561093e57600080fd5b61094a89828a0161087a565b955050604087013567ffffffffffffffff81111561096757600080fd5b61097389828a0161087a565b945050606087013567ffffffffffffffff81111561099057600080fd5b61099c89828a0161087a565b93505060806109ad89828a016108a4565b92505060a06109be89828a016108a4565b9150509295509295509295565b6109d481610c14565b82525050565b6109e381610c26565b82525050565b60006109f482610bed565b6109fe8185610bf8565b9350610a0e818560208601610c6b565b610a1781610d2e565b840191505092915050565b6000610a2d82610bed565b610a378185610c09565b9350610a47818560208601610c6b565b80840191505092915050565b6000610a60600e83610bf8565b91507f4e6f7420617574686f72697a65640000000000000000000000000000000000006000830152602082019050919050565b610a9c81610c52565b82525050565b6000610aae8284610a22565b915081905092915050565b6000602082019050610ace60008301846109cb565b92915050565b6000602082019050610ae960008301846109da565b92915050565b600060c0820190508181036000830152610b0981896109e9565b90508181036020830152610b1d81886109e9565b90508181036040830152610b3181876109e9565b90508181036060830152610b4581866109e9565b9050610b546080830185610a93565b610b6160a0830184610a93565b979650505050505050565b60006020820190508181036000830152610b8581610a53565b9050919050565b6000604051905081810181811067ffffffffffffffff82111715610bb357610bb2610cff565b5b8060405250919050565b600067ffffffffffffffff821115610bd857610bd7610cff565b5b601f19601f8301169050602081019050919050565b600081519050919050565b600082825260208201905092915050565b600081905092915050565b6000610c1f82610c32565b9050919050565b60008115159050919050565b600073ffffffffffffffffffffffffffffffffffffffff82169050919050565b6000819050919050565b82818337600083830152505050565b60005b83811015610c89578082015181840152602081019050610c6e565b83811115610c98576000848401525b50505050565b60006002820490506001821680610cb657607f821691505b60208210811415610cca57610cc9610cd0565b5b50919050565b7f4e487b7100000000000000000000000000000000000000000000000000000000600052602260045260246000fd5b7f4e487b7100000000000000000000000000000000000000000000000000000000600052604160045260246000fd5b6000601f19601f8301169050919050565b610d4881610c14565b8114610d5357600080fd5b50565b610d5f81610c52565b8114610d6a57600080fd5b5056fea2646970667358221220caf27c0d53bead1463a5563703fd365770fc1da699ad117d533f1a332d7d81fd64736f6c63430008000033",
  "linkReferences": {},
  "deployedLinkReferences": {}
}