{
  "_format": "hh-sol-artifact-1",
  "contractName": "UserRequestToCompany",
  "sourceName": "contracts/AccuworkUserRequest.sol",
  "abi": [
    {
      "inputs": [],
      "stateMutability": "nonpayable",
      "type": "constructor"
    },
    {
      "anonymous": false,
      "inputs": [
        {
          "indexed": true,
          "internalType": "address",
          "name": "user",
          "type": "address"
        },
        {
          "components": [
            {
              "internalType": "string",
              "name": "employeeName",
              "type": "string"
            },
            {
              "internalType": "string",
              "name": "companyName",
              "type": "string"
            },
            {
              "internalType": "string",
              "name": "position",
              "type": "string"
            },
            {
              "internalType": "string",
              "name": "location",
              "type": "string"
            },
            {
              "internalType": "uint256",
              "name": "startDate",
              "type": "uint256"
            },
            {
              "internalType": "uint256",
              "name": "endDate",
              "type": "uint256"
            }
          ],
          "indexed": false,
          "internalType": "struct UserRequestToCompany.WorkExperience",
          "name": "workExperience",
          "type": "tuple"
        },
        {
          "indexed": false,
          "internalType": "bool",
          "name": "isVerified",
          "type": "bool"
        },
        {
          "indexed": false,
          "internalType": "uint256",
          "name": "amount",
          "type": "uint256"
        }
      ],
      "name": "TransactionRecord",
      "type": "event"
    },
    {
      "inputs": [],
      "name": "accuworkCompanyWalletAddress",
      "outputs": [
        {
          "internalType": "address",
          "name": "",
          "type": "address"
        }
      ],
      "stateMutability": "view",
      "type": "function"
    },
    {
      "inputs": [
        {
          "internalType": "string",
          "name": "employeeName",
          "type": "string"
        },
        {
          "internalType": "string",
          "name": "companyName",
          "type": "string"
        },
        {
          "internalType": "string",
          "name": "position",
          "type": "string"
        },
        {
          "internalType": "string",
          "name": "location",
          "type": "string"
        },
        {
          "internalType": "uint256",
          "name": "startDate",
          "type": "uint256"
        },
        {
          "internalType": "uint256",
          "name": "endDate",
          "type": "uint256"
        }
      ],
      "name": "addWorkExperienceAndVerifyAndPay",
      "outputs": [
        {
          "internalType": "bool",
          "name": "",
          "type": "bool"
        }
      ],
      "stateMutability": "payable",
      "type": "function"
    },
    {
      "inputs": [],
      "name": "userWalletAddress",
      "outputs": [
        {
          "internalType": "address",
          "name": "",
          "type": "address"
        }
      ],
      "stateMutability": "view",
      "type": "function"
    },
    {
      "inputs": [
        {
          "internalType": "address",
          "name": "",
          "type": "address"
        }
      ],
      "name": "workExperience",
      "outputs": [
        {
          "internalType": "string",
          "name": "employeeName",
          "type": "string"
        },
        {
          "internalType": "string",
          "name": "companyName",
          "type": "string"
        },
        {
          "internalType": "string",
          "name": "position",
          "type": "string"
        },
        {
          "internalType": "string",
          "name": "location",
          "type": "string"
        },
        {
          "internalType": "uint256",
          "name": "startDate",
          "type": "uint256"
        },
        {
          "internalType": "uint256",
          "name": "endDate",
          "type": "uint256"
        }
      ],
      "stateMutability": "view",
      "type": "function"
    }
  ],
  "bytecode": "0x608060405234801561001057600080fd5b50336000806101000a81548173ffffffffffffffffffffffffffffffffffffffff021916908373ffffffffffffffffffffffffffffffffffffffff160217905550611009806100606000396000f3fe60806040526004361061003f5760003560e01c8063363953a4146100445780633ef860d41461006f578063ac559fe11461009f578063f8e0b556146100e1575b600080fd5b34801561005057600080fd5b5061005961010c565b6040516100669190610c8a565b60405180910390f35b61008960048036038101906100849190610972565b610130565b6040516100969190610ca5565b60405180910390f35b3480156100ab57600080fd5b506100c660048036038101906100c19190610949565b6103f4565b6040516100d896959493929190610cc0565b60405180910390f35b3480156100ed57600080fd5b506100f6610650565b6040516101039190610c8a565b60405180910390f35b60008054906101000a900473ffffffffffffffffffffffffffffffffffffffff1681565b60008060009054906101000a900473ffffffffffffffffffffffffffffffffffffffff1673ffffffffffffffffffffffffffffffffffffffff163373ffffffffffffffffffffffffffffffffffffffff16146101c1576040517f08c379a00000000000000000000000000000000000000000000000000000000081526004016101b890610d3d565b60405180910390fd5b600034905065b5e620f480008110156101de5760009150506103ea565b600081905060008054906101000a900473ffffffffffffffffffffffffffffffffffffffff1673ffffffffffffffffffffffffffffffffffffffff166108fc829081150290604051600060405180830381858888f19350505050158015610249573d6000803e3d6000fd5b506040518060c001604052808a815260200189815260200188815260200187815260200186815260200185815250600260003373ffffffffffffffffffffffffffffffffffffffff1673ffffffffffffffffffffffffffffffffffffffff16815260200190815260200160002060008201518160000190805190602001906102d2929190610814565b5060208201518160010190805190602001906102ef929190610814565b50604082015181600201908051906020019061030c929190610814565b506060820151816003019080519060200190610329929190610814565b506080820151816004015560a0820151816005015590505060006103518a8a8a8a8a8a610676565b90503373ffffffffffffffffffffffffffffffffffffffff167ffe1efcbeb790cddd23a41aa48689a8213102a4a40aaafe37d3ee5ddc2832c40d600260003373ffffffffffffffffffffffffffffffffffffffff1673ffffffffffffffffffffffffffffffffffffffff16815260200190815260200160002083866040516103db93929190610d5d565b60405180910390a28093505050505b9695505050505050565b600260205280600052604060002060009150905080600001805461041790610edd565b80601f016020809104026020016040519081016040528092919081815260200182805461044390610edd565b80156104905780601f1061046557610100808354040283529160200191610490565b820191906000526020600020905b81548152906001019060200180831161047357829003601f168201915b5050505050908060010180546104a590610edd565b80601f01602080910402602001604051908101604052809291908181526020018280546104d190610edd565b801561051e5780601f106104f35761010080835404028352916020019161051e565b820191906000526020600020905b81548152906001019060200180831161050157829003601f168201915b50505050509080600201805461053390610edd565b80601f016020809104026020016040519081016040528092919081815260200182805461055f90610edd565b80156105ac5780601f10610581576101008083540402835291602001916105ac565b820191906000526020600020905b81548152906001019060200180831161058f57829003601f168201915b5050505050908060030180546105c190610edd565b80601f01602080910402602001604051908101604052809291908181526020018280546105ed90610edd565b801561063a5780601f1061060f5761010080835404028352916020019161063a565b820191906000526020600020905b81548152906001019060200180831161061d57829003601f168201915b5050505050908060040154908060050154905086565b600160009054906101000a900473ffffffffffffffffffffffffffffffffffffffff1681565b6000806106b8886040518060400160405280600881526020017f4a6f686e20446f650000000000000000000000000000000000000000000000008152506107bb565b80156106ff57506106fe876040518060400160405280600681526020017f476f6f676c6500000000000000000000000000000000000000000000000000008152506107bb565b5b80156107465750610745866040518060400160405280601481526020017f46756c6c20537461636b20446576656c6f7065720000000000000000000000008152506107bb565b5b801561078d575061078c856040518060400160405280600781526020017f546f726f6e746f000000000000000000000000000000000000000000000000008152506107bb565b5b801561079c575063075bcd1584145b80156107ab5750633ade68b183145b9050809150509695505050505050565b6000816040516020016107ce9190610c73565b60405160208183030381529060405280519060200120836040516020016107f59190610c73565b6040516020818303038152906040528051906020012014905092915050565b82805461082090610edd565b90600052602060002090601f0160209004810192826108425760008555610889565b82601f1061085b57805160ff1916838001178555610889565b82800160010185558215610889579182015b8281111561088857825182559160200191906001019061086d565b5b509050610896919061089a565b5090565b5b808211156108b357600081600090555060010161089b565b5090565b60006108ca6108c584610dcc565b610d9b565b9050828152602081018484840111156108e257600080fd5b6108ed848285610e9b565b509392505050565b60008135905061090481610fa5565b92915050565b600082601f83011261091b57600080fd5b813561092b8482602086016108b7565b91505092915050565b60008135905061094381610fbc565b92915050565b60006020828403121561095b57600080fd5b6000610969848285016108f5565b91505092915050565b60008060008060008060c0878903121561098b57600080fd5b600087013567ffffffffffffffff8111156109a557600080fd5b6109b189828a0161090a565b965050602087013567ffffffffffffffff8111156109ce57600080fd5b6109da89828a0161090a565b955050604087013567ffffffffffffffff8111156109f757600080fd5b610a0389828a0161090a565b945050606087013567ffffffffffffffff811115610a2057600080fd5b610a2c89828a0161090a565b9350506080610a3d89828a01610934565b92505060a0610a4e89828a01610934565b9150509295509295509295565b610a6481610e53565b82525050565b610a7381610e65565b82525050565b6000610a8482610e11565b610a8e8185610e2d565b9350610a9e818560208601610eaa565b610aa781610f87565b840191505092915050565b6000610abd82610e11565b610ac78185610e3e565b9350610ad7818560208601610eaa565b80840191505092915050565b60008154610af081610edd565b610afa8186610e1c565b94506001821660008114610b155760018114610b2757610b5a565b60ff1983168652602086019350610b5a565b610b3085610dfc565b60005b83811015610b5257815481890152600182019150602081019050610b33565b808801955050505b50505092915050565b6000610b70600e83610e2d565b91507f4e6f7420617574686f72697a65640000000000000000000000000000000000006000830152602082019050919050565b600060c0830160008084018583036000870152610bc08382610ae3565b925050600184018583036020870152610bd98382610ae3565b925050600284018583036040870152610bf28382610ae3565b925050600384018583036060870152610c0b8382610ae3565b92505060048401549050610c1e81610f0f565b610c2b6080870182610c55565b5060058401549050610c3c81610f0f565b610c4960a0870182610c55565b50819250505092915050565b610c5e81610e91565b82525050565b610c6d81610e91565b82525050565b6000610c7f8284610ab2565b915081905092915050565b6000602082019050610c9f6000830184610a5b565b92915050565b6000602082019050610cba6000830184610a6a565b92915050565b600060c0820190508181036000830152610cda8189610a79565b90508181036020830152610cee8188610a79565b90508181036040830152610d028187610a79565b90508181036060830152610d168186610a79565b9050610d256080830185610c64565b610d3260a0830184610c64565b979650505050505050565b60006020820190508181036000830152610d5681610b63565b9050919050565b60006060820190508181036000830152610d778186610ba3565b9050610d866020830185610a6a565b610d936040830184610c64565b949350505050565b6000604051905081810181811067ffffffffffffffff82111715610dc257610dc1610f58565b5b8060405250919050565b600067ffffffffffffffff821115610de757610de6610f58565b5b601f19601f8301169050602081019050919050565b60008190508160005260206000209050919050565b600081519050919050565b600082825260208201905092915050565b600082825260208201905092915050565b600081905092915050565b6000819050919050565b6000610e5e82610e71565b9050919050565b60008115159050919050565b600073ffffffffffffffffffffffffffffffffffffffff82169050919050565b6000819050919050565b82818337600083830152505050565b60005b83811015610ec8578082015181840152602081019050610ead565b83811115610ed7576000848401525b50505050565b60006002820490506001821680610ef557607f821691505b60208210811415610f0957610f08610f29565b5b50919050565b6000610f22610f1d83610f98565b610e49565b9050919050565b7f4e487b7100000000000000000000000000000000000000000000000000000000600052602260045260246000fd5b7f4e487b7100000000000000000000000000000000000000000000000000000000600052604160045260246000fd5b6000601f19601f8301169050919050565b60008160001c9050919050565b610fae81610e53565b8114610fb957600080fd5b50565b610fc581610e91565b8114610fd057600080fd5b5056fea2646970667358221220098f33d608502563c26e127e12696f47c36252706e84af01b3e753f372a56d6564736f6c63430008000033",
  "linkReferences": {},
  "deployedLinkReferences": {}
}