{
  "_format": "hh-sol-artifact-1",
  "contractName": "UserRequestToCompany",
  "sourceName": "contracts/AccuworkUserRequest.sol",
  "abi": [
    {
      "inputs": [],
      "stateMutability": "nonpayable",
      "type": "constructor"
    },
    {
      "inputs": [],
      "name": "accuworkCompanyWalletAddress",
      "outputs": [
        {
          "internalType": "address",
          "name": "",
          "type": "address"
        }
      ],
      "stateMutability": "view",
      "type": "function"
    },
    {
      "inputs": [
        {
          "internalType": "string",
          "name": "employeeName",
          "type": "string"
        },
        {
          "internalType": "string",
          "name": "companyName",
          "type": "string"
        },
        {
          "internalType": "string",
          "name": "position",
          "type": "string"
        },
        {
          "internalType": "string",
          "name": "location",
          "type": "string"
        },
        {
          "internalType": "uint256",
          "name": "startDate",
          "type": "uint256"
        },
        {
          "internalType": "uint256",
          "name": "endDate",
          "type": "uint256"
        }
      ],
      "name": "addWorkExperienceAndVerifyAndPay",
      "outputs": [
        {
          "internalType": "bool",
          "name": "",
          "type": "bool"
        }
      ],
      "stateMutability": "payable",
      "type": "function"
    },
    {
      "inputs": [],
      "name": "getWorkExperiencesBySender",
      "outputs": [
        {
          "components": [
            {
              "internalType": "string",
              "name": "employeeName",
              "type": "string"
            },
            {
              "internalType": "string",
              "name": "companyName",
              "type": "string"
            },
            {
              "internalType": "string",
              "name": "position",
              "type": "string"
            },
            {
              "internalType": "string",
              "name": "location",
              "type": "string"
            },
            {
              "internalType": "uint256",
              "name": "startDate",
              "type": "uint256"
            },
            {
              "internalType": "uint256",
              "name": "endDate",
              "type": "uint256"
            },
            {
              "internalType": "bool",
              "name": "isVerified",
              "type": "bool"
            }
          ],
          "internalType": "struct UserRequestToCompany.WorkExperience[]",
          "name": "",
          "type": "tuple[]"
        }
      ],
      "stateMutability": "view",
      "type": "function"
    }
  ],
  "bytecode": "0x608060405234801561001057600080fd5b50336000806101000a81548173ffffffffffffffffffffffffffffffffffffffff021916908373ffffffffffffffffffffffffffffffffffffffff160217905550610e1f806100606000396000f3fe6080604052600436106100345760003560e01c8063363953a4146100395780633ef860d414610064578063d40e9cb014610094575b600080fd5b34801561004557600080fd5b5061004e6100bf565b60405161005b9190610b8e565b60405180910390f35b61007e600480360381019061007991906108ae565b6100e3565b60405161008b9190610bcb565b60405180910390f35b3480156100a057600080fd5b506100a96102dd565b6040516100b69190610ba9565b60405180910390f35b60008054906101000a900473ffffffffffffffffffffffffffffffffffffffff1681565b60008034905065b5e620f480008110156101015760009150506102d3565b600081905060008054906101000a900473ffffffffffffffffffffffffffffffffffffffff1673ffffffffffffffffffffffffffffffffffffffff166108fc829081150290604051600060405180830381858888f1935050505015801561016c573d6000803e3d6000fd5b50600061017d8a8a8a8a8a8a6105f0565b905060006040518060e001604052808c81526020018b81526020018a81526020018981526020018881526020018781526020018315158152509050600160003373ffffffffffffffffffffffffffffffffffffffff1673ffffffffffffffffffffffffffffffffffffffff168152602001908152602001600020819080600181540180825580915050600190039060005260206000209060070201600090919091909150600082015181600001908051906020019061023d92919061078e565b50602082015181600101908051906020019061025a92919061078e565b50604082015181600201908051906020019061027792919061078e565b50606082015181600301908051906020019061029492919061078e565b506080820151816004015560a0820151816005015560c08201518160060160006101000a81548160ff0219169083151502179055505050819450505050505b9695505050505050565b6060600160003373ffffffffffffffffffffffffffffffffffffffff1673ffffffffffffffffffffffffffffffffffffffff168152602001908152602001600020805480602002602001604051908101604052809291908181526020016000905b828210156105e757838290600052602060002090600702016040518060e001604052908160008201805461037190610d31565b80601f016020809104026020016040519081016040528092919081815260200182805461039d90610d31565b80156103ea5780601f106103bf576101008083540402835291602001916103ea565b820191906000526020600020905b8154815290600101906020018083116103cd57829003601f168201915b5050505050815260200160018201805461040390610d31565b80601f016020809104026020016040519081016040528092919081815260200182805461042f90610d31565b801561047c5780601f106104515761010080835404028352916020019161047c565b820191906000526020600020905b81548152906001019060200180831161045f57829003601f168201915b5050505050815260200160028201805461049590610d31565b80601f01602080910402602001604051908101604052809291908181526020018280546104c190610d31565b801561050e5780601f106104e35761010080835404028352916020019161050e565b820191906000526020600020905b8154815290600101906020018083116104f157829003601f168201915b5050505050815260200160038201805461052790610d31565b80601f016020809104026020016040519081016040528092919081815260200182805461055390610d31565b80156105a05780601f10610575576101008083540402835291602001916105a0565b820191906000526020600020905b81548152906001019060200180831161058357829003601f168201915b5050505050815260200160048201548152602001600582015481526020016006820160009054906101000a900460ff1615151515815250508152602001906001019061033e565b50505050905090565b600080610632886040518060400160405280600881526020017f4a6f686e20446f65000000000000000000000000000000000000000000000000815250610735565b80156106795750610678876040518060400160405280600681526020017f476f6f676c650000000000000000000000000000000000000000000000000000815250610735565b5b80156106c057506106bf866040518060400160405280601481526020017f46756c6c20537461636b20446576656c6f706572000000000000000000000000815250610735565b5b80156107075750610706856040518060400160405280600781526020017f546f726f6e746f00000000000000000000000000000000000000000000000000815250610735565b5b8015610716575063075bcd1584145b80156107255750633ade68b183145b9050809150509695505050505050565b6000816040516020016107489190610b77565b604051602081830303815290604052805190602001208360405160200161076f9190610b77565b6040516020818303038152906040528051906020012014905092915050565b82805461079a90610d31565b90600052602060002090601f0160209004810192826107bc5760008555610803565b82601f106107d557805160ff1916838001178555610803565b82800160010185558215610803579182015b828111156108025782518255916020019190600101906107e7565b5b5090506108109190610814565b5090565b5b8082111561082d576000816000905550600101610815565b5090565b600061084461083f84610c17565b610be6565b90508281526020810184848401111561085c57600080fd5b610867848285610cef565b509392505050565b600082601f83011261088057600080fd5b8135610890848260208601610831565b91505092915050565b6000813590506108a881610dd2565b92915050565b60008060008060008060c087890312156108c757600080fd5b600087013567ffffffffffffffff8111156108e157600080fd5b6108ed89828a0161086f565b965050602087013567ffffffffffffffff81111561090a57600080fd5b61091689828a0161086f565b955050604087013567ffffffffffffffff81111561093357600080fd5b61093f89828a0161086f565b945050606087013567ffffffffffffffff81111561095c57600080fd5b61096889828a0161086f565b935050608061097989828a01610899565b92505060a061098a89828a01610899565b9150509295509295509295565b60006109a38383610ab7565b905092915050565b6109b481610ca7565b82525050565b60006109c582610c57565b6109cf8185610c7a565b9350836020820285016109e185610c47565b8060005b85811015610a1d57848403895281516109fe8582610997565b9450610a0983610c6d565b925060208a019950506001810190506109e5565b50829750879550505050505092915050565b610a3881610cb9565b82525050565b610a4781610cb9565b82525050565b6000610a5882610c62565b610a628185610c8b565b9350610a72818560208601610cfe565b610a7b81610dc1565b840191505092915050565b6000610a9182610c62565b610a9b8185610c9c565b9350610aab818560208601610cfe565b80840191505092915050565b600060e0830160008301518482036000860152610ad48282610a4d565b91505060208301518482036020860152610aee8282610a4d565b91505060408301518482036040860152610b088282610a4d565b91505060608301518482036060860152610b228282610a4d565b9150506080830151610b376080860182610b68565b5060a0830151610b4a60a0860182610b68565b5060c0830151610b5d60c0860182610a2f565b508091505092915050565b610b7181610ce5565b82525050565b6000610b838284610a86565b915081905092915050565b6000602082019050610ba360008301846109ab565b92915050565b60006020820190508181036000830152610bc381846109ba565b905092915050565b6000602082019050610be06000830184610a3e565b92915050565b6000604051905081810181811067ffffffffffffffff82111715610c0d57610c0c610d92565b5b8060405250919050565b600067ffffffffffffffff821115610c3257610c31610d92565b5b601f19601f8301169050602081019050919050565b6000819050602082019050919050565b600081519050919050565b600081519050919050565b6000602082019050919050565b600082825260208201905092915050565b600082825260208201905092915050565b600081905092915050565b6000610cb282610cc5565b9050919050565b60008115159050919050565b600073ffffffffffffffffffffffffffffffffffffffff82169050919050565b6000819050919050565b82818337600083830152505050565b60005b83811015610d1c578082015181840152602081019050610d01565b83811115610d2b576000848401525b50505050565b60006002820490506001821680610d4957607f821691505b60208210811415610d5d57610d5c610d63565b5b50919050565b7f4e487b7100000000000000000000000000000000000000000000000000000000600052602260045260246000fd5b7f4e487b7100000000000000000000000000000000000000000000000000000000600052604160045260246000fd5b6000601f19601f8301169050919050565b610ddb81610ce5565b8114610de657600080fd5b5056fea26469706673582212207c65b3a6303601c302e2d6c15a9dabce6bfda542e6bdd49d0850d893cbb8182264736f6c63430008000033",
  "linkReferences": {},
  "deployedLinkReferences": {}
}